:020000040800F2
:1000000000500020D5130008B1030008BD0300080C
:10001000C5030008CD030008D50300080000000058
:10002000000000000000000000000000DD030008E8
:10003000E903000800000000F503000801040008BF
:100040001D1400081D1400081D1400081D140008CC
:100050001D1400081D1400081D14000811040008D8
:100060001D1400081D1400081D1400081D140008AC
:100070001D1400081D1400081D1400081D1400089C
:100080001D1400081D1400081D1400081D1400088C
:100090001D1400081D1400081D1400081D1400087C
:1000A0001D1400081D1400081D1400081D1400086C
:1000B0001D1400081D1400081D1400081D1400085C
:1000C0001D1400081D1400081D1400081D1400084C
:1000D0001D1400081D1400081D1400081D1400083C
:1000E000410400081D1400081D1400080000000051
:1000F0000000000000000000000000000000000000
:0C01000000000000000000005FF808F1A3
:10010C0010B5054C237833B9044B13B10448AFF345
:10011C0000800123237010BD280000200000000087
:10012C006C140008084B10B51BB108490848AFF314
:10013C0000800848036803B910BD074B002BFBD0A7
:10014C00BDE81040184700BF000000002C00002044
:10015C006C140008280000200000000080B483B05C
:10016C0000AF78600B46FB7000BF0C37BD4680BCFF
:10017C00704700BF80B500AF00F018FA00F004F82B
:10018C0000F0B4F8FEE700BF80B590B000AF0223DA
:10019C00BB610123BB621023FB6200237B6307F16D
:1001AC001803184600F064FA0346002B03D095217F
:1001BC00174800F031F80F237B600023BB6000234D
:1001CC00FB6000233B6100237B613B1D0021184633
:1001DC0000F0B2FC0346002B03D0A3210C4800F026
:1001EC001BF800F001FE02460A4BA3FB02239B09FD
:1001FC00184601F0B5F8042001F0BEF800220021E9
:10020C004FF0FF3001F082F800BF4037BD4680BD93
:10021C0084140008D34D621080B483B000AF7860B2
:10022C003960FEE780B588B000AFF860B9607A60DD
:10023C00FB689B69002B54D0FB685A68FB681B68F1
:10024C009BB21946104600F055FF0346BB61FB6894
:10025C00DA68FB689B689BB21946104600F04AFFAF
:10026C0003467B61FB685A69FB681B699BB21946A4
:10027C00104600F03FFF03463B614FF0FF33FB613C
:10028C00FB685A68BB689A4204D1FB681A687B68A1
:10029C009A4209D0FB68DA68BB689A4215D1FB68B0
:1002AC009A687B689A4210D1BB69002B05D07B6998
:1002BC00002B02D10323FB6107E0BB69002B04D1A7
:1002CC007B69002B01D00223FB61FB69B3F1FF3F7B
:1002DC0008D0FB689B69FA69D2B21146F868984756
:1002EC0000E000BF2037BD4680BD00BF80B588B0A0
:1002FC0000AF284A274B9B6943F010039361254BB1
:10030C009B6903F01003FB60FB68224A214B9B693D
:10031C0043F0080393611F4B9B6903F00803BB6018
:10032C00BB681C4A1B4B9B6943F004039361194B3C
:10033C009B6903F004037B607B684FF4C0433B6113
:10034C00154B7B610123BB6107F110031946134860
:10035C0000F072FD02233B610F4B7B610123BB61FB
:10036C0007F1100319460E4800F066FD002200212B
:10037C00072000F0CBFF072000F0E4FF0022002153
:10038C00282000F0C3FF282000F0DCFF00BF20373E
:10039C00BD4680BD0010024000002110001001403D
:1003AC00000C014080B400AF00BFBD4680BC70475C
:1003BC0080B400AFFEE700BF80B400AFFEE700BF23
:1003CC0080B400AFFEE700BF80B400AFFEE700BF13
:1003DC0080B400AF00BFBD4680BC704780B400AF96
:1003EC0000BFBD4680BC704780B400AF00BFBD46A7
:1003FC0080BC704780B500AF00F01EF900F0D8FF4C
:10040C0000BF80BD80B500AF074B5B6903F00203F2
:10041C00002B04D0022205490548FFF703FF0220F8
:10042C0000F080FE00BF80BD00040140000C0140C4
:10043C000000002080B500AF104B5B6903F4005343
:10044C00002B05D04FF400520D490E48FFF7EAFE81
:10045C000A4B5B6903F48043002B05D04FF48042B8
:10046C0007490848FFF7DEFE4FF4005000F05AFE33
:10047C004FF4804000F056FE00BF80BD00040140E8
:10048C00001001400000002080B584B000AF2B4A62
:10049C002A4B9B6943F001039361284B9B6903F042
:1004AC000103BB60BB68254A244BDB6943F08053D6
:1004BC00D361224BDB6903F080537B607B680320A4
:1004CC0000F018FF002200216FF00B0000F01EFF5F
:1004DC00002200216FF00A0000F018FF002200211A
:1004EC006FF0090000F012FF002200216FF00400F1
:1004FC0000F00CFF002200216FF0030000F006FF5B
:10050C00002200216FF0010000F000FF002200210A
:10051C004FF0FF3000F0FAFE094B5B68FB60FB68A4
:10052C0023F0E063FB60FB6843F08073FB60044ADC
:10053C00FB68536000BF1037BD4680BD0010024001
:10054C000000014080B400AF154A154B1B6843F006
:10055C00010313601249124B5A68124B13404B6043
:10056C000F4A0F4B1B6823F0847323F48033136002
:10057C000B4A0B4B1B6823F480231360084A084B6F
:10058C005B6823F4FE035360054B4FF41F029A6023
:10059C00054B4FF000629A6000BFBD4680BC7047AF
:1005AC00001002400000FFF800ED00E080B500AF45
:1005BC00084A084B1B6843F010031360032000F03B
:1005CC0099FE002000F008F8FFF75EFF00231846A4
:1005DC0080BD00BF0020024080B582B000AF7860C3
:1005EC00124B1A68124B1B7819464FF47A73B3FBF3
:1005FC00F1F3B2FBF3F3184600F0B2FE0346002B06
:10060C0001D001230EE07B680F2B0AD800227968F9
:10061C004FF0FF3000F07AFE064A7B68136000232F
:10062C0000E0012318460837BD4680BD1C000020A1
:10063C00240000202000002080B400AF054B1B7864
:10064C001A46054B1B681344034A136000BFBD4692
:10065C0080BC7047240000204400002080B400AF10
:10066C00024B1B681846BD4680BC704744000020F6
:10067C0080B586B000AF786000233B617B681B6857
:10068C0003F00103002B00F08680924B5B6803F0B3
:10069C000C03042B0BD08F4B5B6803F00C03082B63
:1006AC0011D18C4B5B6803F48033002B0BD0894B3E
:1006BC001B6803F40033002B6CD07B685B68002B49
:1006CC0068D101232EE27B685B68B3F5803F06D1CD
:1006DC00804A804B1B6843F4803313602EE07B68A8
:1006EC005B68002B0CD17B4A7A4B1B6823F480335C
:1006FC001360784A774B1B6823F4802313601DE04A
:10070C007B685B68B3F5A02F0CD1724A714B1B68E8
:10071C0043F4802313606F4A6E4B1B6843F48033A1
:10072C0013600BE06B4A6B4B1B6823F48033136034
:10073C00684A684B1B6823F4802313607B685B68F2
:10074C00002B13D0FFF78AFF386108E0FFF786FF14
:10075C0002463B69D31A642B01D90323E2E15D4BBA
:10076C001B6803F40033002BF0D014E0FFF776FF86
:10077C00386108E0FFF772FF02463B69D31A642B1D
:10078C0001D90323CEE1534B1B6803F40033002B38
:10079C00F0D100E000BF7B681B6803F00203002B64
:1007AC0063D04C4B5B6803F00C03002B0BD0494B14
:1007BC005B6803F00C03082B1CD1464B5B6803F4FD
:1007CC008033002B16D1434B1B6803F00203002B24
:1007DC0005D07B681B69012B01D00123A2E13D49A7
:1007EC003C4B1B6823F0F8027B685B69DB0013430E
:1007FC000B603AE07B681B69002B20D0364B012242
:10080C001A60FFF72BFF386108E0FFF727FF02465D
:10081C003B69D31A022B01D9032383E12D4B1B68AF
:10082C0003F00203002BF0D02A492A4B1B6823F05B
:10083C00F8027B685B69DB0013430B6015E0264B09
:10084C0000221A60FFF70AFF386108E0FFF706FF85
:10085C0002463B69D31A022B01D9032362E11D4BDB
:10086C001B6803F00203002BF0D17B681B6803F0BC
:10087C000803002B3AD07B689B69002B19D0174BCF
:10088C0001221A60FFF7EAFE386108E0FFF7E6FE86
:10089C0002463B69D31A022B01D9032342E10D4BCB
:1008AC005B6A03F00203002BF0D0012000F0A6FAE3
:1008BC001CE00A4B00221A60FFF7D0FE38610FE0F3
:1008CC00FFF7CCFE02463B69D31A022B08D903234F
:1008DC0028E100BF00100240000042428004424266
:1008EC00924B5B6A03F00203002BE9D17B681B6817
:1008FC0003F00403002B00F0A6800023FB758B4B48
:10090C00DB6903F08053002B0DD1884A874BDB69E0
:10091C0043F08053D361854BDB6903F08053FB605C
:10092C00FB680123FB75824B1B6803F48073002B5F
:10093C0018D17F4A7E4B1B6843F480731360FFF71A
:10094C008DFE386108E0FFF789FE02463B69D31A39
:10095C00642B01D90323E5E0754B1B6803F480730A
:10096C00002BF0D07B68DB68012B06D16F4A6F4BF4
:10097C001B6A43F0010313622DE07B68DB68002BDC
:10098C000CD16A4A694B1B6A23F001031362674A54
:10099C00664B1B6A23F0040313621CE07B68DB6864
:1009AC00052B0CD1614A614B1B6A43F004031362A3
:1009BC005E4A5E4B1B6A43F0010313620BE05B4A19
:1009CC005A4B1B6A23F001031362584A574B1B6A9C
:1009DC0023F0040313627B68DB68002B15D0FFF750
:1009EC003DFE38610AE0FFF739FE02463B69D31A37
:1009FC0041F28832934201D9032393E04B4B1B6A9B
:100A0C0003F00203002BEED014E0FFF727FE386151
:100A1C000AE0FFF723FE02463B69D31A41F2883203
:100A2C00934201D903237DE0404B1B6A03F0020380
:100A3C00002BEED1FB7D012B05D13C4A3B4BDB69F6
:100A4C0023F08053D3617B68DB69002B69D0374B73
:100A5C005B6803F00C03082B61D07B68DB69022B0D
:100A6C0046D1344B00221A60FFF7F8FD386108E0DC
:100A7C00FFF7F4FD02463B69D31A022B01D903237D
:100A8C0050E02A4B1B6803F00073002BF0D17B68FD
:100A9C001B6AB3F5803F08D12449244B5B6823F4CF
:100AAC0000327B689B6813434B6020481F4B5B688C
:100ABC0023F474127B68196A7B685B6A0B431343DB
:100ACC0043601C4B01221A60FFF7C8FD386108E037
:100ADC00FFF7C4FD02463B69D31A022B01D903234D
:100AEC0020E0124B1B6803F00073002BF0D018E0D1
:100AFC00104B00221A60FFF7B1FD386108E0FFF7D8
:100B0C00ADFD02463B69D31A022B01D9032309E040
:100B1C00064B1B6803F00073002BF0D101E001239E
:100B2C0000E0002318461837BD4680BD0010024077
:100B3C00007000406000424280B584B000AF786025
:100B4C0039600023FB60724B1B6803F007023B68A3
:100B5C009A4210D26E496E4B1B6823F007023B6819
:100B6C0013430B606A4B1B6803F007023B689A4205
:100B7C0001D00123C8E07B681B6803F00203002B43
:100B8C0008D06449634B5B6823F0F0027B689B6878
:100B9C0013434B607B681B6803F00103002B6AD086
:100BAC007B685B68012B07D15A4B1B6803F400333D
:100BBC00002B15D10123A7E07B685B68022B07D1C2
:100BCC00544B1B6803F00073002B09D101239BE0ED
:100BDC00504B1B6803F00203002B01D1012393E05F
:100BEC004C494C4B5B6823F003027B685B681343F6
:100BFC004B60FFF733FDF8607B685B68012B12D10B
:100C0C000AE0FFF72BFD0246FB68D31A41F288324B
:100C1C00934201D9032377E03E4B5B6803F00C034E
:100C2C00042BEED127E07B685B68022B1DD10AE018
:100C3C00FFF714FD0246FB68D31A41F28832934247
:100C4C0001D9032360E0334B5B6803F00C03082BE2
:100C5C00EED110E0FFF702FD0246FB68D31A41F219
:100C6C008832934201D903234EE02A4B5B6803F090
:100C7C000C03002BEED1264B1B6803F007023B68DC
:100C8C009A4210D92249224B1B6823F007023B6879
:100C9C0013430B601E4B1B6803F007023B689A4220
:100CAC0001D0012330E07B681B6803F00403002BA8
:100CBC0008D01849174B5B6823F4E0627B68DB684B
:100CCC0013434B607B681B6803F00803002B09D0AF
:100CDC001049104B5B6823F460527B681B69DB0086
:100CEC0013434B6000F01CF801460A4B5B6803F0A1
:100CFC00F0031B09084AD35C21FA03F3074A13607B
:100D0C000020FFF769FC002318461037BD4680BD54
:100D1C000020024000100240A41400081C00002017
:100D2C0090B48AB000AF2B4B3C1D186859689A6878
:100D3C00DB680FC4284A3B4612881A800023FB61EB
:100D4C000023BB6100237B6200237B6100233B6299
:100D5C00224B5B68FB61FB6903F00C03042B02D094
:100D6C00082B03D02DE01E4B3B622DE0FB699B0C46
:100D7C0003F00F0307F12802134413F8243C7B61A2
:100D8C00FB6903F48033002B13D0144B5B6803F422
:100D9C0000335B0C07F12802134413F8283CBB61A9
:100DAC007B690F4A02FB03F2BB69B2FBF3F37B6274
:100DBC0004E07B690B4A02FB03F37B627B6A3B62B8
:100DCC0002E0074B3B6200BF3B6A18462837BD4622
:100DDC0090BC704790140008A0140008001002404A
:100DEC0000127A0000093D0080B400AF024B1B6872
:100DFC001846BD4680BC70471C00002080B485B0EE
:100E0C0000AF78600A4B1B680A4AA2FB03235B0AFB
:100E1C007A6802FB03F3FB6000BFFB685A1EFA60A2
:100E2C00002BF9D100BF1437BD4680BC704700BF02
:100E3C001C000020D34D621080B48BB000AF7860E2
:100E4C0039600023FB610023BB6100237B6100231D
:100E5C003B6200233B6100237B6227E101227B6A1A
:100E6C0002FA03F3FB613B681A68FB691340BB6130
:100E7C00BA69FB699A4240F016813B685B68122B99
:100E8C0034D0122B0DD8022B2BD0022B04D8002BD4
:100E9C0031D0012B1CD048E0032B43D0112B1BD09D
:100EAC0043E0874A934226D0854A934206D8854A26
:100EBC00934220D0844A93421DD036E0834A934219
:100ECC0019D0834A934216D0824A934213D02CE015
:100EDC003B68DB683B6228E03B68DB6804333B62C1
:100EEC0023E03B68DB6808333B621EE03B68DB6851
:100EFC000C333B6219E03B689B68002B02D1042346
:100F0C003B6212E03B689B68012B05D108233B62D6
:100F1C007B68FA691A6108E008233B627B68FA690E
:100F2C005A6102E000233B6200BFBB69FF2B01D872
:100F3C007B6801E07B680433FB60BB69FF2B02D844
:100F4C007B6A9B0002E07B6A083B9B003B61FB6871
:100F5C001A680F213B6901FA03F3DB431A40396A23
:100F6C003B6901FA03F31A43FB681A603B685B6840
:100F7C0003F08053002B00F09680574A564B9B6928
:100F8C0043F001039361544B9B6903F00103BB6075
:100F9C00BB68524A7B6A9B08023352F823307B6150
:100FAC007B6A03F003039B000F2202FA03F3DB437B
:100FBC007A6913407B617B68494A934213D07B6802
:100FCC00484A93420DD07B68474A934207D07B68CE
:100FDC00464A934201D1032306E0042304E0022392
:100FEC0002E0012300E000237A6A02F0030292007F
:100FFC0093407A6913437B6138497B6A9B080233BF
:10100C007A6941F823203B685B6803F48033002B3A
:10101C0006D03749364B1A68BB6913430B6006E0A0
:10102C003349334B1A68BB69DB4313400B603B6895
:10103C005B6803F40033002B06D02D492C4B5A6807
:10104C00BB6913434B6006E02949294B5A68BB69BD
:10105C00DB4313404B603B685B6803F48013002B4D
:10106C0006D02349224B9A68BB6913438B6006E078
:10107C001F491F4B9A68BB69DB4313408B603B686D
:10108C005B6803F40013002B06D01949184BDA687F
:10109C00BB691343CB6006E01549154BDA68BB6995
:1010AC00DB431340CB607B6A01337B627B6A0F2B83
:1010BC007FF6D4AE00BF2C37BD4680BC704700BF56
:1010CC00000021100000111000001210000031105F
:1010DC0000003210000022100010024000000140FD
:1010EC0000080140000C01400010014000140140B8
:1010FC000004014080B485B000AF78600B467B8063
:10110C007B689A687B881340002B02D00123FB7309
:10111C0001E00023FB73FB7B18461437BD4680BCF3
:10112C00704700BF80B582B000AF0346FB80084B10
:10113C005A69FB881340002B06D0054AFB88536183
:10114C00FB88184600F006F800BF0837BD4680BD86
:10115C000004014080B483B000AF0346FB8000BFA5
:10116C000C37BD4680BC704780B485B000AF78604A
:10117C007B6803F00703FB600C4BDB68BB60BA6851
:10118C004FF6FF031340BB60FB681A02BB681343A6
:10119C0043F0BF6343F40033BB60044ABB68D360C5
:1011AC0000BF1437BD4680BC704700BF00ED00E0A7
:1011BC0080B400AF044BDB6803F4E0631B0A1846F1
:1011CC00BD4680BC704700BF00ED00E080B483B02A
:1011DC0000AF0346FB71084997F907305B09FA79B0
:1011EC0002F01F02012000FA02F241F8232000BF96
:1011FC000C37BD4680BC704700E100E080B483B082
:10120C0000AF03463960FB7197F90730002B0BDAFE
:10121C000D49FB7903F00F03043B3A68D2B212017B
:10122C00D2B20B441A7609E0084997F907303A68AC
:10123C00D2B21201D2B20B4483F8002300BF0C3798
:10124C00BD4680BC704700BF00ED00E000E100E04F
:10125C0080B489B000AFF860B9607A60FB6803F0C5
:10126C000703FB61FB69C3F10703042B28BF0423AD
:10127C00BB61FB690433062B02D9FB69033B00E01D
:10128C0000237B610122BB6902FA03F35A1EBB687F
:10129C001A407B699A4001217B6901FA03F3591EBC
:1012AC007B680B40134318462437BD4680BC7047FF
:1012BC0080B582B000AF78607B68013BB3F1807F72
:1012CC0001D301230FE00A4A7B68013B53600F21D5
:1012DC004FF0FF30FFF792FF054B00229A60044B52
:1012EC0007221A60002318460837BD4680BD00BF90
:1012FC0010E000E080B582B000AF78607868FFF74E
:10130C0033FF00BF0837BD4680BD00BF80B586B037
:10131C0000AF0346B9607A60FB7300237B61FFF773
:10132C0047FF78617A68B9687869FFF791FF0246E0
:10133C0097F90F3011461846FFF760FF00BF1837BA
:10134C00BD4680BD80B582B000AF0346FB7197F9F6
:10135C0007301846FFF73AFF00BF0837BD4680BD7F
:10136C0080B582B000AF78607868FFF7A1FF0346C4
:10137C0018460837BD4680BD80B483B000AF786096
:10138C007B68042B06D1094A084B1B6843F0040305
:10139C00136005E0054A054B1B6823F0040313603A
:1013AC0000BF0C37BD4680BC704700BF10E000E0AA
:1013BC0080B500AF00F002F800BF80BD80B400AF74
:1013CC0000BFBD4680BC7047002103E00B4B5B584F
:1013DC00435004310A480B4B42189A42F6D30A4A3E
:1013EC0002E0002342F8043B084B9A42F9D3FFF782
:1013FC00A9F800F00FF8FEF7BDFE7047BC1400080A
:10140C0000000020280000202800002048000020B8
:10141C00FEE700000E4B70B51E460E4C0025E41A7C
:10142C00A410A54204D056F8253098470135F8E7AA
:10143C0000F016F8084B094C1E46E41AA4100025BF
:10144C00A54204D056F8253098470135F8E770BD11
:10145C00B4140008B4140008B4140008B81400083C
:10146C00F8B500BFF8BC08BC9E467047F8B500BF85
:08147C00F8BC08BC9E46704755
:101484005372632F6D61696E2E63000002030405BD
:10149400060708090A0B0C0D0E0F101001020000BC
:1014A4000000000000000000010203040607080910
:0414B40031010008FA
:0414B8000D0100081A
:1014BC00004000000010014002000000000C014040
:1014CC0000200000001001406901000800A24A043D
:0814DC001000000001000000F7
:04000005080013D507
:00000001FF
